:020000040800F2
:1000000000000320DD0E0008DD260008DF260008C2
:10001000E1260008E3260008E526000800000000AD
:10002000000000000000000000000000D17D00087A
:10003000E726000800000000617E0008D97600086D
:100040002D0F00082D0F00082D0F00082D0F0008A0
:100050002D0F00082D0F00080D2700082D0F000898
:100060002D0F00082D0F00082D0F00082D0F000880
:100070002D0F00082D0F00082D0F00082D0F000870
:100080002D0F00082D0F00082D0F00082D0F000860
:100090002D0F00082D0F00082D0F00082D0F000850
:1000A0002D0F00082D0F00082D0F00082D0F000840
:1000B0002D0F00082D0F00082D0F00082D0F000830
:1000C0002D0F00082D0F00082D0F00082D0F000820
:1000D0002D0F00082D0F00082D0F00082D0F000810
:1000E0002D0F00082D0F00082D0F00082D0F000800
:1000F0002D0F00082D0F00082D0F00082D0F0008F0
:100100002D0F00082D0F00082D0F00082D0F0008DF
:100110002D0F00082D0F0008E92600082D0F0008FC
:100120002D0F00082D0F00082D0F00082D0F0008BF
:100130002D0F00082D0F00082D0F00082D0F0008AF
:100140002D0F00082D0F00082D0F00082D0F00089F
:100150002D0F00082D0F00082D0F00082D0F00088F
:100160002D0F00082D0F00082D0F00082D0F00087F
:100170002D0F00082D0F00082D0F000800000000B3
:100180002D0F00082D0F00082D0F00082D0F00085F
:100190002D0F00082D0F00082D0F00082D0F00084F
:0C01A000F52600082D0F000801270008BC
:1001B00010B5054C237833B9044B13B10448AFF3A1
:1001C00000800123237010BDF0000020000000001B
:1001D000E855010808B5034B1BB103490348AFF3C9
:1001E000008008BD00000000F4000020E855010870
:1001F00001F0FF01102A2BDB10F0070F08D010F8D8
:10020000013B013A8B422DD010F0070F42B3F6D1DB
:10021000F0B441EA012141EA014122F007047FF0F4
:1002200000070023F0E80256083C85EA010586EA4B
:10023000010685FA47F5A3FA87F586FA47F6A5FA87
:1002400087F68EB9EED1F0BC01F0FF0102F0070293
:1002500032B110F8013B013A83EA010313B1F8D13E
:100260000020704701387047002D06BF354603381F
:10027000073815F0010F07D1013015F4807F02BF58
:10028000013015F4C03F0130F0BC0138704700BFA9
:10029000034613F8012B002AFBD1181A01387047C6
:1002A00081F0004102E000BF83F0004330B54FEA27
:1002B00041044FEA430594EA050F08BF90EA020F94
:1002C0001FBF54EA000C55EA020C7FEA645C7FEA27
:1002D000655C00F0E2804FEA5454D4EB5555B8BF4A
:1002E0006D420CDD2C4480EA020281EA030382EABB
:1002F000000083EA010180EA020281EA0303362D4D
:1003000088BF30BD11F0004F4FEA01314FF4801C1F
:100310004CEA113102D0404261EB410113F0004F31
:100320004FEA03334CEA133302D0524263EB4303E8
:1003300094EA050F00F0A780A4F10104D5F1200E86
:100340000DDB02FA0EFC22FA05F2801841F10001E1
:1003500003FA0EF2801843FA05F359410EE0A5F1B5
:1003600020050EF1200E012A03FA0EFC28BF4CF0E6
:10037000020C43FA05F3C01851EBE37101F000459C
:1003800007D54FF0000EDCF1000C7EEB00006EEBA9
:100390000101B1F5801F1BD3B1F5001F0CD3490833
:1003A0005FEA30004FEA3C0C04F101044FEA44528A
:1003B00012F5800F80F09A80BCF1004F08BF5FEA11
:1003C000500C50F1000041EB045141EA050130BDF1
:1003D0005FEA4C0C404141EB0101013C28BFB1F503
:1003E000801FE9D291F0000F04BF01460020B1FA4E
:1003F00081F308BF2033A3F10B03B3F120020CDA21
:100400000C3208DD02F1140CC2F10C0201FA0CF0FE
:1004100021FA02F10CE002F11402D8BFC2F1200C63
:1004200001FA02F120FA0CFCDCBF41EA0C01904019
:10043000E41AA2BF01EB0451294330BD6FEA040462
:100440001F3C1CDA0C340EDC04F11404C4F120024D
:1004500020FA04F001FA02F340EA030021FA04F35F
:1004600045EA030130BDC4F10C04C4F1200220FAB6
:1004700002F001FA04F340EA0300294630BD21FAF4
:1004800004F0294630BD94F0000F83F4801306BFBA
:1004900081F480110134013D4EE77FEA645C18BFAE
:1004A0007FEA655C29D094EA050F08BF90EA020F45
:1004B00005D054EA000C04BF1946104630BD91EA3D
:1004C000030F1EBF0021002030BD5FEA545C05D140
:1004D0004000494128BF41F0004130BD14F580047F
:1004E0003CBF01F5801130BD01F0004545F0FE41F3
:1004F00041F470014FF0000030BD7FEA645C1ABF28
:10050000194610467FEA655C1CBF0B46024650EA5E
:10051000013406BF52EA033591EA030F41F400218A
:1005200030BD00BF90F0000F04BF0021704730B510
:100530004FF4806404F132044FF000054FF00001E5
:1005400050E700BF90F0000F04BF0021704730B5A6
:100550004FF4806404F1320410F0004548BF40427B
:100560004FF000013EE700BF42004FEAE2014FEAD0
:1005700031014FEA02701FBF12F07F4393F07F4FAB
:1005800081F06051704732F07F4208BF704793F0AE
:100590007F4F04BF41F40021704730B54FF46074C1
:1005A00001F0004521F000411CE700BF50EA0102C4
:1005B00008BF704730B54FF000050AE050EA01026D
:1005C00008BF704730B511F0004502D5404261EBDD
:1005D00041014FF4806404F132045FEA915C3FF41E
:1005E000D8AE4FF003025FEADC0C18BF03325FEABB
:1005F000DC0C18BF033202EBDC02C2F1200300FA6C
:1006000003FC20FA02F001FA03FE40EA0E0021FA90
:1006100002F11444BDE600BF70B54FF0FF0C4CF47E
:10062000E06C1CEA11541DBF1CEA135594EA0C0F30
:1006300095EA0C0F00F0DEF82C4481EA030621EA6B
:100640004C5123EA4C5350EA013518BF52EA0335A6
:1006500041F4801143F4801338D0A0FB02CE4FF058
:100660000005E1FB02E506F00042E0FB03E54FF088
:100670000006E1FB03569CF0000F18BF4EF0010E80
:10068000A4F1FF04B6F5007F64F5407404D25FEA7C
:100690004E0E6D4146EB060642EAC62141EA55512F
:1006A0004FEAC52040EA5E504FEACE2EB4F1FD0C71
:1006B00088BFBCF5E06F1ED8BEF1004F08BF5FEAEF
:1006C000500E50F1000041EB045170BD06F00046A1
:1006D00046EA010140EA020081EA0301B4EB5C044E
:1006E000C2BFD4EB0C0541EA045170BD41F4801146
:1006F0004FF0000E013C00F3AB8014F1360FDEBF6B
:10070000002001F0004170BDC4F10004203C35DA46
:100710000C341BDC04F11404C4F1200500FA05F3C9
:1007200020FA04F001FA05F240EA020001F000426A
:1007300021F0004110EBD37021FA04F642EB0601E0
:100740005EEA430E08BF20EAD37070BDC4F10C040A
:10075000C4F1200500FA04F320FA05F001FA04F2CE
:1007600040EA020001F0004110EBD37041F10001BA
:100770005EEA430E08BF20EAD37070BDC4F12005C5
:1007800000FA05F24EEA020E20FA04F301FA05F22D
:1007900043EA020321FA04F001F0004121FA04F2D5
:1007A00020EA020000EBD3705EEA430E08BF20EAA5
:1007B000D37070BD94F0000F0FD101F000464000DF
:1007C00041EB010111F4801F08BF013CF7D041EA61
:1007D000060195F0000F18BF704703F00046520065
:1007E00043EB030313F4801F08BF013DF7D043EA36
:1007F0000603704794EA0C0F0CEA135518BF95EAEC
:100800000C0F0CD050EA410618BF52EA4306D1D172
:1008100081EA030101F000414FF0000070BD50EA91
:10082000410606BF1046194652EA430619D094EA1B
:100830000C0F02D150EA013613D195EA0C0F05D105
:1008400052EA03361CBF104619460AD181EA030159
:1008500001F0004141F0FE4141F470014FF0000011
:1008600070BD41F0FE4141F4780170BD70B54FF0AC
:10087000FF0C4CF4E06C1CEA11541DBF1CEA13552C
:1008800094EA0C0F95EA0C0F00F0A7F8A4EB05040E
:1008900081EA030E52EA03354FEA013100F0888005
:1008A0004FEA03334FF0805545EA131343EA1263CE
:1008B0004FEA022245EA111545EA10654FEA002683
:1008C0000EF000419D4208BF964244F1FD0404F53C
:1008D000407402D25B084FEA3202B61A65EB030598
:1008E0005B084FEA32024FF480104FF4002CB6EB55
:1008F000020E75EB030E22BFB61A754640EA0C00D5
:100900005B084FEA3202B6EB020E75EB030E22BF14
:10091000B61A754640EA5C005B084FEA3202B6EB55
:10092000020E75EB030E22BFB61A754640EA9C0014
:100930005B084FEA3202B6EB020E75EB030E22BFE4
:10094000B61A754640EADC0055EA060E18D04FEAA2
:10095000051545EA16754FEA06164FEAC30343EA42
:1009600052734FEAC2025FEA1C1CC0D111F4801F0F
:100970000BD141EA00014FF000004FF0004CB6E708
:1009800011F4801F04BF01430020B4F1FD0C88BFA7
:10099000BCF5E06F3FF6AFAEB5EB030C04BFB6EBB2
:1009A000020C5FEA500C50F1000041EB045170BDA5
:1009B0000EF0004E4EEA113114EB5C04C2BFD4EBD2
:1009C0000C0541EA045170BD41F480114FF0000E56
:1009D000013C90E645EA060E8DE60CEA135594EAD2
:1009E0000C0F08BF95EA0C0F3FF43BAF94EA0C0FD5
:1009F0000AD150EA01347FF434AF95EA0C0F7FF44A
:100A000025AF104619462CE795EA0C0F06D152EA9D
:100A100003353FF4FDAE1046194622E750EA410681
:100A200018BF52EA43067FF4C5AE50EA41047FF492
:100A30000DAF52EA43057FF4EBAE12E74FF0FF3CF7
:100A400006E000BF4FF0010C02E000BF4FF0010CC8
:100A50004DF804CD4FEA410C7FEA6C5C4FEA430C41
:100A600018BF7FEA6C5C1BD001B050EA410C0CBF90
:100A700052EA430C91EA030F02BF90EA020F0020F2
:100A8000704710F1000F91EA030F58BF994208BF59
:100A900090422CBFD8176FEAE37040F00100704716
:100AA0004FEA410C7FEA6C5C02D150EA013C07D16D
:100AB0004FEA430C7FEA6C5CD6D152EA033CD3D0B8
:100AC0005DF8040B704700BF8446104662468C46B2
:100AD0001946634600E000BF01B5FFF7B7FF0028E5
:100AE00048BF10F1000F01BD4DF808EDFFF7F4FF0E
:100AF0000CBF012000205DF808FB00BF4DF808ED99
:100B0000FFF7EAFF34BF012000205DF808FB00BFBB
:100B10004DF808EDFFF7E0FF94BF012000205DF8DD
:100B200008FB00BF4DF808EDFFF7CEFF94BF012092
:100B300000205DF808FB00BF4DF808EDFFF7C4FF8B
:100B400034BF012000205DF808FB00BF4FEA4102DE
:100B5000B2F1E04324BFB3F5001CDCF1FE5C0DD91B
:100B600001F0004C4FEAC0024CEA5070B2F1004F65
:100B700040EB830008BF20F00100704711F0804F68
:100B800021D113F13872BCBF01F00040704741F42D
:100B900080114FEA5252C2F11802C2F1200C10FA31
:100BA0000CF320FA02F018BF40F001004FEAC12315
:100BB0004FEAD32303FA0CFC40EA0C0023FA02F3B9
:100BC0004FEA4303CCE77FEA625307D150EA01338F
:100BD0001EBF4FF0FE4040F44000704701F000405F
:100BE00040F0FE4040F40000704700BF53B94AB9DE
:100BF000002908BF00281CBF4FF0FF314FF0FF3025
:100C000000F06AB9ADF1080C6DE904CE00F006F809
:100C1000DDF804E0DDE9022304B070472DE9F04778
:100C2000089D0C46002B4ED194468C458646B2FA60
:100C300082F262D94AB1C2F12003914020FA03F353
:100C40000CFA02FC194300FA02FE4FEA1C471FFA95
:100C50008CF6B1FBF7F44FEA1E4307FB141143EA8D
:100C6000014304FB06F199420AD91CEB030304F18A
:100C7000FF3080F01281994240F20F81023C6344C0
:100C8000591A1FFA8EF3B1FBF7F007FB101143EA74
:100C9000014300FB06F69E420AD91CEB030300F158
:100CA000FF3180F0FC809E4240F2F98063440238BC
:100CB0009B1B40EA044000211DB1D3400022C5E93E
:100CC0000032BDE8F0878B4205D90DB1C5E90001BE
:100CD00000210846F5E7B3FA83F1002946D1A34283
:100CE00002D39042C0F0F080861A64EB0303012027
:100CF000002DE6D0C5E90063E3E7002A40F09080CC
:100D0000A1EB0C044FEA1C481FFA8CF70121B4FB3D
:100D1000F8F64FEA1E4308FB164443EA044307FB78
:100D200006F0984208D91CEB030306F1FF3402D207
:100D3000984200F2CD8026461C1A1FFA8EF3B4FBAF
:100D4000F8F008FB104443EA044300FB07F79F4216
:100D500008D91CEB030300F1FF3402D29F4200F2DA
:100D6000B0802046DB1B40EA0640A5E7C1F1200623
:100D70008B4022FA06F71F4320FA06FC04FA01F31F
:100D800043EA0C03F44000FA01F8380C4FEA134927
:100D9000B4FBF0FE1FFA87FC00FB1E4449EA044442
:100DA0000EFB0CF9A14502FA01F20AD93C190EF129
:100DB000FF3A80F08480A14540F28180AEF1020EBE
:100DC0003C44A4EB09041FFA83F9B4FBF0F300FBE5
:100DD000134449EA044403FB0CFCA44507D93C191D
:100DE00003F1FF3067D2A44565D9023B3C4443EA96
:100DF0000E40A0FB0293A4EB0C049C42CE469C4602
:100E000051D34ED055B1B8EB0E0364EB0C0404FA89
:100E100006F6CB401E43CC40C5E90064002150E7F4
:100E2000C2F1200320FA03F10CFA02FC24FA03F3C6
:100E300094400C434FEA1C4800FA02FE1FFA8CF75C
:100E4000B3FBF8F008FB1031230C43EA014300FB2D
:100E500007F1994208D91CEB030300F1FF362CD2AD
:100E600099422AD9023863445B1AA4B2B3FBF8F161
:100E700008FB113344EA034401FB07F3A34208D9FA
:100E80001CEB040401F1FF3613D2A34211D902393D
:100E90006444E41A41EA004139E70446F0E60846B2
:100EA00006E7C845AED2B9EB020E63EB070C01387A
:100EB000A8E73146EDE7034699E73046D4E7D64642
:100EC0007FE7634402384DE70646234608460FE7AE
:100ED000023E634430E700BF704700BFDFF834D004
:100EE000002103E00C4B5B58435004310B480C4B82
:100EF00042189A42F6D30B4A02E0002342F8043B20
:100F0000094B9A42F9D303F0A7FF13F0CBFD00F091
:100F1000FDFD704700000320B8FE0D080000002012
:100F2000F0000020F000002018570120FEE700200C
:100F3000704781807047C18070470181704741814F
:100F400070477047704770477047704710B4C48847
:100F50000368121B84885B6D091B12B25DF8044B99
:100F600009B218474FF6FF7383814FF0FF330362D6
:100F70001368C36110607047704710B53021044694
:100F800012F0E9FE204610BD90F8252012B103684A
:100F90005B691847704708B590F828300BB1FFF728
:100FA000F3FF08BD90F825201AB190F8242002B173
:100FB0001860704770B5036804461B6B1546984768
:100FC0002368294620465B6BBDE870401847000047
:100FD0002DE9F347DFF874A0DFF874900546044666
:100FE00000F160084FF6FF7600230127A380E3801D
:100FF00023816381A381E38123826382E36123846C
:10100000638484F82430C4E9053384F82570C4F877
:1010100000A0E68484F82860204601A9ADF80460A9
:101020000AF05DFA4FF07E53C4F8009084F82970FE
:10103000E36230344445D7D14FF4A072E62328460A
:10104000C5E9182302B0BDE8F08700BF506A010867
:101050005056010870B50546044600F1600694F844
:10106000293073B3B4F90630DFED187AD4ED0B6A8A
:1010700007EE103AB4F90430B8EEC77A204637EEDE
:10108000277A07EE903AF8EEE77ABDEEC77A77EE68
:10109000E67A2368FDEEE77A17EE102A17EE901A2B
:1010A0009B6D12B209B29847B4F90820B4F9043024
:1010B000DA4206D5B4F90620B5F960102046FFF7EC
:1010C00079FF3034B442CAD170BD00BF00000000C7
:1010D00030B5254D00F563740246116852F8043F9F
:1010E00001F0004123F000430B43D2F8301681EAAF
:1010F000530113F0010318BF2B465940944242F8A4
:10110000041CEAD1184D021F00F22C64D2F890336F
:10111000D2F8941303F0004321F000410B4352F83E
:10112000041F81EA530113F0010318BF2B464B4003
:101130009442C2F88C33E9D1D0F8BC3902680A492C
:1011400022F0004203F000431343D0F8302682EA35
:10115000530213F0010318BF0B465A400023C0F896
:10116000BC29C0F8C03930BDDFB00899D0F8C0390B
:10117000B3F51C7F10B5044601D3FFF7A9FFD4F8DF
:10118000C03909485A1CC4F8C02954F82320074B19
:1011900082EAD22203EAC213534000EAC330584025
:1011A00080EA904010BD00BF0000C6EF80562C9D25
:1011B00070B5ADF59C5D86B00DF6D4143B4A05467E
:1011C0000DF6DC10D11F206012F07CFE0723636057
:1011D00023680022DA71214604A812F0E3FD2046BC
:1011E00012F059FE04A812F021FE2060304821467A
:1011F00001220B6883EA937300FB03230132B2F5EB
:101200001C7F41F8043FF4D1C4F8C0292046FFF701
:10121000ADFF0F21A0FB01300E2B07D80E462BB9D6
:101220002046FFF7A3FFA0FB0630F8E703AB00F171
:1012300010020126962128461E80FFF7BBFE1D4B9B
:10124000EB6203AB1946284685F8296001930AF042
:1012500046F92046FFF78AFF0F21A0FB01300E2B35
:1012600001D80E46DBB103AB05F1300400F11002EA
:101270000126204655211E80FFF79CFE4FF080433B
:10128000EB652B6B01991B6E85F8596020469847DA
:1012900004A812F0C9FD0DF59C5D06B070BD204696
:1012A000FFF764FFA0FB0630DCE700BF47560108EC
:1012B0006589076C6666A63F2DE9F04F87B0064644
:1012C00000F048F906F5A15406F5A458DFF8FCB083
:1012D000DFF8FCA0103408F110084FF6FF79002564
:1012E0000127A580E58025816581A581E58125828D
:1012F0006582E5612584658484F8245084F825702E
:10130000C4F800B0A4F8269084F82890C4E90555E4
:1013100020466946ADF800900AF0E1F84FF07E53A0
:10132000C4F800A084F82970E36230344445D6D173
:10133000244A06F580544FF0FF33D11F02A8C4F8A9
:10134000A034009012F0BEFD0723019306F5A558C6
:10135000009B08F104086946DD71404612F022FD49
:10136000684612F098FD404612F060FD06F5F35114
:10137000C4F8680E144808310A6882EA927200FBC9
:1013800002720137B7F51C7F41F8042FF4D104F540
:1013900080520023C2F8287806F500520121C2F8D5
:1013A0002C38C2F8301830464FF4FA72C4F8902442
:1013B000C4F89424C4F89834C4F89C3407B0BDE849
:1013C000F08F00BF475601086589076C506A010815
:1013D0005056010810B5044600F03AF904F5A15042
:1013E0001030BDE8104000F039BA2DE9F04700F5A3
:1013F00080542DED028BD4F8A03401330746B0EEB3
:10140000408A0E4623D100F5005300F5F359D3F876
:1014100030A8D3F82C58AAEB0508B8F1FF3F09F122
:10142000080963D04846FFF7A1FE08F10108A0FBB8
:101430000830984508D96A1EA2EB0A02B2FBF8F1FF
:1014400008FB112A9A454BD80544C4F8A054D4F897
:10145000A03423BBD7F89430302202FB037393F8F7
:101460002920002A46D14FF0FF32C4F8A0240122DF
:1014700083F82920D7F89030302202FB0373B3F9A8
:101480000420C4F89024B3F90620C4F89424B3F9D6
:101490000820B3F90A30C4F89824C4F89C34D4F86E
:1014A000A034012B18D194F859244ABB4FF0FF32D5
:1014B000C4F8A02484F85934B4F93434C4F890340E
:1014C000B4F93634C4F89434B4F93834C4F89834E0
:1014D000B4F93A34C4F89C34BDEC028BBDE8F08713
:1014E0004846FFF743FEA8FB0030ABE74846FFF74E
:1014F0003DFEA9E7B0EE480A384600F0CBF8B9E760
:1015000007F5A150B0EE480A3146103000F046F918
:10151000D2E730B52DED028B83B00446ADF8043030
:10152000036809B21B6B1546B0EE408A98472368E2
:1015300029B220465B6B9847012384F82930236841
:1015400084ED0B8A1B6E01A92046984703B0BDECC1
:10155000028B30BD2DE9F04FDFF8ECB0DFF8ECA0E6
:1015600087B00646044600F190094FF6FF78002543
:101570000127A580E58025816581A581E5812582FA
:101580006582E5612584658484F8245084F825709B
:10159000C4F800B0A4F8268084F82880C4E9055572
:1015A00020466946ADF8008009F099FF4FF07E5360
:1015B000C4F800A084F82970E36230344C45D6D1D9
:1015C0001F4A02A8D11F009012F07CFC0723019350
:1015D000009B06F198046946DD71204612F0E2FB9B
:1015E000684612F058FC204612F020FCC6F85C0A4F
:1015F000144806F65C210A6882EA927200FB0272C5
:101600000137B7F51C7F41F8042FF4D106F580525D
:101610000023C2F820340223C2F824344FF4A0730C
:10162000C2F82834E623C2F82C3430464FF0FF339A
:10163000C2F81C74C6E9243307B0BDE8F08F00BFC0
:10164000475601086589076C506A01085056010821
:1016500010B5B7EE000A04464FF00E0395224FF482
:10166000D271FFF756FF04F13000B7EE000A4FF0D9
:101670000B0391224FF4D271FFF74BFFB7EE000A34
:101680004FF00F03A1224FF4D27104F16000FFF775
:1016900040FF10BD2DE9F843D0F8903001332DED17
:1016A000028B0446B0EE408A2ED100F5805600F63B
:1016B0005C27D6F82494D6F82054A9EB0508B8F195
:1016C000FF3F65D03846FFF751FD08F10108A0FB48
:1016D0000830984508D96A1EA2EB0902B2FBF8F15E
:1016E00008FB112999454DD805443023C4F8905082
:1016F0005D4360190123D6F8281480F82930635916
:1017000064311B6B09B29847D4F8903030256B4395
:10171000E01890F829208AB3B0F906209FED1E7AD0
:10172000E35807EE902AB0F904209B6D00EE102AD2
:10173000F8EEE77AB8EEC00A77EE877A30EE480A1C
:10174000FDEEE77ABDEEC00A17EE902A10EE101AF1
:1017500012B209B29847D4F8902005FB0243B3F9BE
:101760000400B3F90810C84208D5002183F82910F5
:101770004FF0FF33C4F89420C4F89030BDEC028BD6
:10178000BDE8F8833846FFF7F1FCA8FB0030A9E775
:101790003846FFF7EBFCA7E70000000070B5182300
:1017A00091FBF3F202FB131114292DED028B044679
:1017B000B0EE408A12D8264B012202FA01F10B400A
:1017C0003BB92448084048B184F8253084F85520B6
:1017D00004E0002380F8252080F85530DFED1E8AD4
:1017E00004F160050026B4F9063007EE103AB4F9AA
:1017F000043007EE903AB8EEC77AF8EEE77A37EEA3
:10180000287A77EEC87ABDEEC77AFDEEE77A2368CC
:1018100017EE102A17EE901A9B6D12B209B22046ED
:101820009847B4F90820B4F90430DA4209D523689E
:10183000B4F906209B6D4FF4A0712046984784F8B8
:1018400029603034A542CED1BDEC028B70BD00BF03
:101850000111100010000100000000002DE9F04F00
:101860002DED028BADF59C5D83B00DF6C414524A8C
:1018700005460DF6CC10D11F206012F023FB072384
:10188000636023680022DA712146684612F08AFA02
:10189000204612F000FB684612F0C8FA2060474864
:1018A000214601220B6883EA937300FB0323013274
:1018B000B2F51C7F41F8043FF4D1414FDFF8189195
:1018C000C4F8C0294FF002084FF0000A4FF0000B97
:1018D0000026D4F8C039B3F51C7F02D32046FFF7A9
:1018E000F7FBD4F8C03954F823005A1C354BC4F820
:1018F000C02980EAD02003EAC013584009EAC03367
:10190000584080EA9040FEF70DFE32463B46FEF717
:1019100083FE02460B4650465946FEF7C7FC2A4B4B
:1019200082468B46304639460022FEF775FEB8F1F6
:10193000010F06460F463CD102460B46504659461B
:10194000FEF794FF1E4B002206460F46FFF7EAF80B
:1019500010B11E4F4FF0FF3632463B4630463946F7
:10196000FEF7A4FC164B0022FEF7A0FCFFF7EEF8F2
:10197000174B08EE100A1B88B0EE480A28465F2273
:101980004FF4D271FFF7C5FD124BB0EE480A1B8829
:101990005F224FF4D27105F13000FFF7BAFD6846BF
:1019A00012F042FA0DF59C5D03B0BDEC028BBDE870
:1019B000F08F4FF001088CE7475601086589076CE6
:1019C0000000F03F80562C9D0000F041FFFFEF3FEC
:1019D0000E0100200C0100200000C6EF034B112275
:1019E0001A80034B12221A80704700BF0E0100209C
:1019F0000C01002007B5064BADF806001B68054832
:101A000001220DF1060105F019FA03B05DF804FB9F
:101A100004000020F001002008B5012005F0DDFEE3
:101A2000FBE7000008B50F4D0F4C284603F008FBFC
:101A3000204603F005FB0121284603F07FFB01212E
:101A4000204603F07BFB284603F0CBFB074B1880B6
:101A5000204603F0C6FB064B1880642005F0BDFE4F
:101A6000E3E700BF740100202C0100202A010020C0
:101A70002801002030B595B0102200210AA812F0EC
:101A800068FF1422002103A812F063FF00241D4BFD
:101A900001941A6C42F080521A641B6C03F080535C
:101AA0000193019B184B02941A6842F440421A6059
:101AB0001B6803F4404302930122029B4FF48033DE
:101AC000CDE9082302254FF48003CDE90E53082108
:101AD0004FF4A873CDE9101308A8042313931295AB
:101AE00004F07CFC0F23CDE903354FF4A0504FF4F4
:101AF0008053CDE90603052103A8059404F04AFEAE
:101B000015B030BD00380240007000402DE980481B
:101B10009BB003F0AFF9FFF7ADFF142200210DA831
:101B2000002412F016FFC64B00941A6BC548C64E2F
:101B300042F010021A631A6B02F010020092009A2F
:101B400001941A6B42F020021A631A6B02F0200211
:101B50000192019A02941A6B42F080021A631A6B86
:101B600002F080020292029A03941A6B42F004027D
:101B70001A631A6B02F004020392039A04941A6B1C
:101B800042F001021A631A6B02F001020492049AF5
:101B900005941A6B42F002021A631A6B02F00202F9
:101BA0000592059A06941A6B42F040021A631A6B6A
:101BB00002F040020692069A07941A6B42F008025D
:101BC0001A631B6B03F00803079322463C21079B13
:101BD00003F0EEFD9D482246042103F0E9FD224674
:101BE0009B484FF44051012503F0E2FD4FF0030AFA
:101BF0003C239448CDF840A00DA94FF0020B0427D8
:101C0000CDE90D350F9403F0E9FC9048CDF840B0D4
:101C10000DA9CDE90D750F9403F0E0FC4FF440538E
:101C20008B480DA9CDE90D35CDE90F4B03F0D6FC5E
:101C300088480F940DA9CDE90D5403F0CFFC0DA9F0
:101C40000C2385480F95CDE90D3403F0C7FC83487C
:101C5000834B036003F0B6FB824A834B3462C6E9D0
:101C6000002330464FF48043C6E90434C6E90244F9
:101C7000C6E9064403F098FF1021304604F0D4F979
:101C80002146304604F0EFF97848794984624FF4F0
:101C90008273C0E900134FF400761823C0E906638D
:101CA0000A23744EC362C0E90244C0E90444C0E997
:101CB000084405F067F8704BCDF834B04FF01009C8
:101CC000C6E900354023C6E904934FF4C073C6E962
:101CD00006344FF40063C6E908344FF40053B3628E
:101CE0000DA907233046CDE9103ACDE90E374FF064
:101CF0000808C6E90247CDE912BB04F03FFF4FF6E2
:101D0000FF7209A93046CDE90A85089409950C941B
:101D100004F054FF284603F0D9F84FF6FF7209A9E2
:101D20003046CDE909B8CDE90B5404F047FF4FF632
:101D3000FF7209A93046CDE909A8CDE90B7404F07A
:101D40003DFF4FF40C730893089B0C934FF6FF7202
:101D500009A93046CDE909780B9504F02FFF40F230
:101D60006A51304604F048FF342221460DEB020050
:101D700012F0EFFD414E424B3461C6E900340923B5
:101D8000C6E905351D2340F20D1CC6E9073A40F2AD
:101D90004313C6E909C340F2171E40F24713304609
:101DA000C6E90BE3C6E90244B48686F8364004F07F
:101DB000FFF9FF21F022CDE912144FF0050A4FF48C
:101DC00080614FF4A073CDE90E24CDE9141ACDE95A
:101DD00016420DA922463046CDE9103B294E1893F4
:101DE0000D94ADF864408DF8664004F0ACFA264BD3
:101DF00033601B6898473368244EDB689847244B50
:101E00003046C6E90034C6E902B4C6E90A4BC6E961
:101E10000C4403F0E7FA2946304603F09BFB00F040
:101E2000E1FC4A4621460DA812F093FD194E1A4BCB
:101E3000DFF868B03461C6E90034304630E000BFF6
:101E40000038024000100240F0020020000802406A
:101E5000000C0240000002400018024084030020F1
:101E600000300240005C0040A0860100F00100202C
:101E700000500140BC010020400100A048020020A9
:101E800000680140100100201400002044030020DD
:101E900000B0024074010020002001400100000F4A
:101EA0004FF00073B360347686F82040F462C6F8D1
:101EB00028B0F460F56186F83040756103F01AF8D7
:101EC0000D220DA93046CDE90D25264E0F9403F0C5
:101ED0008BF921464A460DA812F03BFD224A346197
:101EE0004FF000733046B360C6E90024C6E90AB477
:101EF000347686F82040F460F56186F830407561EC
:101F000002F0F8FF0DA93046CDE90DA50F9403F0BE
:101F10006BF905F0EFFB154A2946404605F011FD27
:101F2000134B144A18603946484605F00AFD124B17
:101F3000124A18602146124805F008FC114B124A5B
:101F400018602146114805F001FC114B114A186038
:101F50002146114805F0FAFB104B186005F0DCFB38
:101F6000FEE700BF2C0100200021014000570108BE
:101F700018010020E85601081401002060570108EC
:101F8000191A00082401002018570108251A000812
:101F90001C0100203C570108E9270008200100200F
:101FA000704770477FB5094B8DF817201B68029367
:101FB0000DF117020123009201930A4601460448DD
:101FC00003F09AFE07B05DF804FB00BF0800002094
:101FD000F00200207FB500238DF81730084B1B68F6
:101FE00002930A4601230DF1170100910193014666
:101FF000044803F011FF9DF8170007B05DF804FBDB
:1020000008000020F00200201FB5084C2468009250
:10201000CDE901340A4601230146054803F0FCFEE0
:10202000003818BF012004B010BD00BF0800002018
:10203000F002002002F04ABF10B5064C00222046F4
:10204000042103F0B5FB20460122BDE81040042125
:1020500003F0AEBB0008024038B50B4D0446012228
:102060000A484FF4005103F0A3FB00220421284644
:1020700003F09EFB2046FFF7BDFC28460122BDE889
:102080003840042103F094BB00080240000C0240D9
:1020900038B50B4D044600220A484FF4005103F0B6
:1020A00087FB00220421284603F082FB2046FFF72D
:1020B000A1FC28460122BDE83840042103F078BB8A
:1020C00000080240000C0240F7B5144E144F0546BC
:1020D0000C4630460022042103F06AFB00224FF434
:1020E0000051384603F064FB2846FFF783FC0D4B94
:1020F0000D481B68224601A905F03FF83846012229
:102100004FF40051019C03F053FB3046012204219F
:1021100003F04EFB204603B0F0BD00BF00080240B4
:10212000000C024004000020F001002002F0CEBEAE
:102130000268034B9A4201D102F0B6BE704700BF5D
:10214000001000407047000082B00E4B0022009249
:10215000596C41F480415964596C01F480410091FB
:1021600000990192196C41F0805119641B6C03F0C5
:1021700080530193019B0F216FF0010002B003F027
:10218000E1B800BF003802400268094B9A4282B0B1
:102190000BD100230193074B1A6B42F480521A6350
:1021A0001B6B03F480530193019B02B0704700BF87
:1021B000003002400038024010B514228AB00446B4
:1021C00000210DEB020012F0C4FB2368214A934268
:1021D0001FD1214B2148002101915A6C42F4807299
:1021E0005A645A6C02F480720192019A02911A6B3D
:1021F00042F004021A631B6B03F0040302930821EC
:10220000029B0323CDE9051305A903F0E7F90AB002
:1022100010BD134A9342FAD10F4B1248002103918B
:102220005A6C42F400725A645A6C02F400720392BF
:10223000039A04911A6B42F001021A631B6B03F0BC
:1022400001030493049B20220323CDE9052305A960
:10225000DBE700BF002001400038024000080240D8
:10226000002101400000024007B50F4B02689A426E
:1022700016D10022A3F5F0430192196B41F400013D
:1022800019631B6B03F40003019305215A20019B82
:1022900003F058F85A2003B05DF804EB03F084B85B
:1022A00003B05DF804FB00BF00B002402DE9F0432D
:1022B000044689B01422002103A812F04AFB2268C8
:1022C000244B9A4243D1244C244800250095236B8B
:1022D00043F004032363236B03F004030093009B88
:1022E0000195236B43F001032363236B03F0010388
:1022F0000193019B4FF012094FF400734FF0010856
:102300000327042603A9CDE90339CDE905870796FC
:1023100003F064F94FF480731148079603A9CDE9DF
:102320000339CDE9058703F059F90295236C43F48D
:1023300000032364236C03F400030293029B236ACB
:1023400043F400032362236A23F40003236209B0E9
:10235000BDE8F083005C0040003802400008024005
:1023600000000240F0B599B004461422002107A8ED
:1023700012F0EFFA30220DEB0200002112F0E9FA20
:1023800022685E4B9A4240F0B78008230C93C0232A
:102390001093042312930CA84FF40033159304F008
:1023A000C1FA08B1FFF7CEFE554B56480024009401
:1023B0005A6C42F080625A645A6C02F08062009259
:1023C000009A01941A6B42F020021A631A6B02F011
:1023D00020020192019A02941A6B42F001021A63E0
:1023E0001A6B02F001020292029A03941A6B42F0F5
:1023F00002021A631A6B02F002020392039A049417
:102400001A6B42F040021A631A6B02F04002049207
:10241000049A05941A6B42F004021A631A6B02F0D4
:1024200004020592059A06941A6B42F008021A6398
:102430001B6B03F00803069302250E26069B0B96E2
:102440004FF4806307A9CDE90735CDE9094503F0CD
:10245000C5F841F658032C480B9607A9CDE9073576
:102460000927CDE9094503F0B9F8032327480B975D
:1024700007A9CDE90735CDE9094503F0AFF84FF4D9
:10248000706322480B9607A9CDE90735CDE90945C8
:1024900003F0A4F84FF40C631D480B9607A9CDE98F
:1024A0000735CDE9094503F099F8C02319480B9683
:1024B00007A9CDE90735CDE9094503F08FF80823D1
:1024C00015480B9607A9CDE90735CDE9094503F075
:1024D00085F84FF4A0530E480B9707A9CDE90735AF
:1024E000CDE9094503F07AF858202246052102F08B
:1024F00029FF582002F058FF19B0F0BD00680140D4
:102500000038024000140240000002400004024073
:102510000018024000080240000C024010B50446BA
:1025200088B01422002103A812F013FA2268144B79
:102530009A4223D103F56843002101915A6C114856
:1025400042F480125A645A6C02F480120192019A89
:1025500002911A6B42F020021A631B6B03F02003F6
:102560000293029B4FF4607202230321CDE90323FF
:102570000523CDE9061303A903F030F808B010BD18
:1025800000500140001402402DE9F04186B00023C4
:1025900003932B4B1C68002C4FD14FF00108C3F85C
:1025A0000080284B00949A6B274842EA08029A63FD
:1025B0009B6B03EA08030093022703260C25009B6C
:1025C00001A94FF63F03CDE90137CDE9046503F0DA
:1025D00005F81E48059501A9CDE90187CDE9034617
:1025E00002F0FCFF48F233131948059501A9CDE923
:1025F0000137CDE9034602F0F1FF4FF6837315482A
:10260000059501A9CDE90137CDE9034602F0E6FFC2
:102610004CF203731048059501A9CDE90137CDE9C6
:10262000034602F0DBFF60230C48059501A9CDE9C4
:102630000137CDE9034602F0D1FF06B0BDE8F081D5
:102640008C030020003802400014024000080240C1
:102650000018024000100240000C0240000402403A
:1026600030B5014689B00022362002F06BFE3620DC
:1026700002F09AFE0025154B02951A6C144C42F09C
:1026800010021A641B6C03F01003029301A903A843
:10269000029B04F029F904F017F90E4B236040F275
:1026A000E733E36040000C4BB0FBF3F001386060AF
:1026B00020462561A56004F045FF20B9204604F0BE
:1026C000FBFD09B030BD0120FBE700BF0038024030
:1026D000900300200010004040420F007047FEE7CA
:1026E000FEE7FEE7FEE77047014804F023BE00BFA7
:1026F00090030020014803F0C9BD00BF480200203C
:10270000014802F09DBE00BF4403002013B50B4CEE
:10271000206805F0B2F9012809D841238DF8073067
:102720002068C82300220DF1070105F045F90120BA
:1027300002B0BDE8104003F04BB800BF1801002004
:102740000120704708B512F0A7F9162303604FF077
:10275000FF3008BD08B512F09FF916230360FEE7AD
:1027600070B50D4614460E46731B9C4201DC204694
:1027700070BDAFF3008006F8010BF5E770B50D46AC
:1027800014460E46731B9C4201DC204670BD16F8B1
:10279000010BAFF30080F5E74FF0FF3070474FF4C7
:1027A00000534B60002070470120704700207047A5
:1027B0000A4A116808B5034609B909491160106849
:1027C000694603448B4206D912F066F90C23036074
:1027D0004FF0FF3008BD1360FCE700BFD8030020B6
:1027E0001857012000F0BABC00F02CBD704710B59E
:1027F0000421044611F0AFFA204610BD38B50C4B49
:102800000C4C18800C4B822019806368984740F666
:10281000110398420AD1094D23682C608220984701
:102820002B688220DB689847002038BD0120FCE738
:10283000E60300204C000020E4030020E803002011
:102840004FF4A071F020FFF7D9BF0000F7B5334D6A
:102850002B6804461B6982209847208000284AD0B4
:102860002B680DF106025B6901A982209847BDF82B
:10287000063040F6746293423FD9ADF80620BDF8A9
:102880000630D21A92B20A2A3DD90B23B2FBF3F2D8
:10289000234B1B889A4201D9013B9AB2BDF8043000
:1028A00040F6B8318B4230D8C3F571630E339BB21A
:1028B0000F21B3FBF1F31B4909888B4201D9013980
:1028C0008BB2194E194D30682F68834281B28CBF8C
:1028D000591AC91AB8B2BA428CBF101A801A89B2F2
:1028E00080B201440529C8BF33603368C8BF2A607D
:1028F00063802B68A38003B0F0BDB32B9CBFB423CF
:10290000ADF80630BBE70022C8E7C3F56D630833B6
:102910009BB20E2BCCD80023D3E700BFE8030020E6
:10292000E4030020E6030020E0030020DC03002095
:1029300037B568460D461446FFF788FFBDF800001E
:1029400030B1BDF802302B60BDF8043023600120A7
:1029500003B030BD032821D8DFE800F0020B1219C4
:102960000F4B1A68B2FA82F2520904210D4802F0A4
:102970001FBF0B4B5A68B2FA82F252090821F5E7E1
:10298000074B9A68B2FA82F252091021EEE7044B23
:10299000DA68B2FA82F252092021E7E7704700BFF5
:1029A000EC03002000100240032821D8DFE800F0EB
:1029B000020B12190F4B1A68003A18BF01220421AA
:1029C0000D4802F0F5BE0B4B5A68003A18BF0122C1
:1029D0000821F5E7074B9A68003A18BF0122102139
:1029E000EEE7044BDA68003A18BF01222021E7E73E
:1029F000704700BFEC0300200010024003280DD8F0
:102A0000DFE800F00206080A0421054802F0D5BEFE
:102A10000821FAE71021F8E72021F6E7704700BF08
:102A20000010024008B5032811D8DFE800F0020AC0
:102A30000C0E0421074802F0B5FE431E58425841CF
:102A400008BD0821F6E71021F4E72021F2E7002075
:102A5000F3E700BF0010024070B5084D00240126C6
:102A6000E0B2FFF7DFFF18B12B68012B18BF2E6013
:102A70000134052C05F10405F2D170BDEC030020F2
:102A8000012380F8781080F8793070470020704773
:102A9000034B4164003918BF01211970704700BF12
:102AA000534F012000207047836B0BB10846184735
:102AB00070474FF6FF707047406803689B6918477E
:102AC000704770477047000070B5044600F05AFC2C
:102AD0002368D3F88850044BD4E90F122046AC4643
:102AE000BDE87040604700BF000000D008B5036833
:102AF0000446D3F880309847236820469B6F984758
:102B000000F0ECF8236820461B6F98472920FFF758
:102B1000BFFA00F0E3F8236820461B6F9847F8E7F8
:102B200010B5044607F03CFF23682046D3F8AC30CC
:102B3000BDE81040184700F017BC00F01BBC00F0C7
:102B400047BC00F0EDBB00F047BC00F04FBC00F00C
:102B5000F1BB07F085B910B57C21044611F0FBF8F4
:102B6000204610BD10B590F8341090F878400C4B0A
:102B70008C421A7809D03AB90A4A0B491488088855
:102B800010800C8001221A7010BD002AFCD0054A6A
:102B900005491488088810800C800022F3E700BFE4
:102BA0004C4F0120484F01204A4F012070B50D467F
:102BB000194635B9094B0A4A0A4840F2D22111F0A8
:102BC000B7F9C0E90F52084B003A18BF01221A703A
:102BD0000368BDE87040D3F88C3018479C57010853
:102BE000D457010822580108524F012008B5094B5B
:102BF0001B888B4203D8084B1B88934205D9074B8F
:102C0000074A08489E2111F093F9074B1980074B9A
:102C10001A8008BD484F01204A4F0120675801081B
:102C2000CA580108225801084E4F0120504F012078
:102C3000034690F87A0018B1586803681B68184773
:102C400070470000012108B50022084604F0D1FDBC
:102C50000A4B186028B90A4B0A4A28210A4811F081
:102C600067F900220421012004F06BFE074B186075
:102C700018B9074B034A2C21F0E708BD00040020D7
:102C8000E8590108315A0108605A0108FC03002084
:102C9000C55A0108024B4FF0FF31186804F0F3BD2C
:102CA00000040020014B186804F019BE0004002045
:102CB000024B0021186804F0E6BD00BF00040020AC
:102CC000FFF7F0BF03480449006800231A4604F0E8
:102CD00073BE00BFFC0300200C00002013B5084C9D
:102CE00000231A4601A9206804F097FE20684FF0DF
:102CF000FF33002201A904F090FE02B010BD00BF16
:102D0000FC03002003685B6C1847012070470368D0
:102D10009B6A184782B0002301930D4B1A6B42F453
:102D200000021A631A6B02F400020192019A1A69F6
:102D300042F400021A611A6922F400021A61054B7A
:102D4000054A1A61054B4FF080629A6002B07047E5
:102D50000038024044030020ED2F000800E100E0AD
:102D600040F2EF3070470000054B0360054B4FF019
:102D70008062C3F88820BFF34F8FBFF36F8F704717
:102D80007C5C010800E100E010B504464FF45A6194
:102D9000FFF7EAFF204610F0DEFF204610BD0000DE
:102DA00008B50A2809D8DFE800F006100E08080860
:102DB000081010101000022008BD054B054A0648F7
:102DC000872111F0B5F80020F6E70120F4E700BFF5
:102DD000075B0108225B01086D5B010838B50C46F2
:102DE000887FFFF7DDFFA58AE28A164B21695863C9
:102DF00042EA05425A64628BD963521B1A64256801
:102E0000082D0ED19A611A615862207F0E4A42EA5B
:102E10000062DA61E2681A620C4A5961D9601A608C
:102E200038BD0022D8611A61E1680A0A480902F433
:102E3000784200F4FC600243C1F3C4010A439A6380
:102E4000034AECE700B00240090001000102020061
:102E50000102030008B50B280BD8DFE800F00612CA
:102E6000100A0A0A0A0808080808022008BD0520F6
:102E7000FCE7054B054A0648662111F059F8002089
:102E8000F4E70120F2E700BF075B0108D05B01080F
:102E90006D5B01082DE9F04191F81D800C4640461C
:102EA000FFF7D8FFA77F05463846FFF7D3FF064652
:102EB0003846FFF775FFA18A628B444B521A1A6499
:102EC0009A61228B521A1A61E28A586342EA0142DD
:102ED0005A6421696268D963DA602068802828D042
:102EE000227F0FD8202867D0402865D004281AD028
:102EF000364B45EA026545F40035B845DD6161D0E1
:102F0000334A44E0B0F5807F04D0B0F5007FEFD1C4
:102F1000304800E0304840EA0262DA61E2681A6252
:102F20005E62596132E045EA026242F40032DA61DF
:102F3000F6E7A068021DDA62227F45EA026545F4E1
:102F40000035DD615E625961017841B1012921D00E
:102F5000224B234A234840F2111110F0E9FFDA69AD
:102F6000418822F47F42013922F0100242EA012214
:102F7000DA610121154BDA6942F02002DA61DA697F
:102F80009206FCD410229A600029B9D0164A1A6021
:102F9000BDE8F081B2F1FF01DA69408822F47F4296
:102FA00000F1FF3022F0100242EA002242F010024B
:102FB00018BF0121DA61DDE745EA0262034B42F402
:102FC0000032B4E740F20122E1E700BF00B0024066
:102FD00001020100090002000A0002001A5C010857
:102FE000345C01086D5B010801020200024B1B68A2
:102FF000586803685B691847544F012070B5044650
:1030000025460A4B0C30002660602672667245F831
:10301000203B6022294607F001FE04F55A63EE606A
:1030200024359D42FBD1204670BD00BF7C5C010869
:10303000012070470C2070470C2303FB010008306F
:1030400070470C2303FB01000830704701207047D4
:1030500042F63440704742F6344303FB0100083027
:10306000704742F6344303FB0100083070470120EB
:1030700070471020704700EB01100830704700EBDC
:10308000011008307047084600F09ABB10B5034B9A
:103090000360044606F039FC204610BD345D01088B
:1030A00010B50446FFF7F2FF2046142110F053FE3E
:1030B000204610BD10B5034B0360044606F025FC06
:1030C000204610BD005D010810B50446FFF7F2FF71
:1030D000204642F63C4110F03EFE204610BD000066
:1030E00010B5034B0360044606F00FFC204610BDEC
:1030F000CC5C010810B50446FFF7F2FF204618210A
:1031000010F029FE204610BD10B5094B036004469F
:1031100000F531502830FFF7B9FF04F12C00FFF71C
:10312000C9FF04F11400FFF7DBFF204610BD00BF0C
:10313000685D010808B50248FFF7E6FF08BD00BF5B
:10314000B812002010B50446FFF7DEFF204642F615
:10315000E45110F000FE204610BD00002DE9F341BF
:1031600000F0B4F9054600F0B5F900240146234605
:103170002846224600940DF07BFF264B264A274D19
:103180001A60204601F0C0F825480DF0D9FE2B68E2
:10319000BFF35B8FDB0736D4284610F0DEFD90B31B
:1031A000204C214F214B236007F1200604F114002D
:1031B00004F12C086060C4F80880E760266106F01E
:1031C000A5FB1B4B6361404606F0A0FB194BE36275
:1031D000384606F09BFB04F5005303F67C40164A84
:1031E000C3F8682C01F016F9224607F114013046A5
:1031F00001F006F9304600F0E3FA104810F0B6FE90
:10320000284610F0B6FD0E4802B0BDE8F041FFF7C9
:103210005BBC00BFB04F012080040020B41200202E
:1032200010000020B8120020203F0020685D010837
:10323000CC5C0108005D0108345D010835310008EF
:10324000040400200148FFF751BC00BF0404002023
:1032500070B5224E224C234D234B23603046FFF79E
:10326000CDFE28460EF064FD204B2148DC60002294
:103270004FF48071C3E912121E491A86C3E91A126B
:103280001D4999671D4983F858200B60F021018082
:103290001B485A6601801B4883F870204FF4A071C8
:1032A000C3E90422C3E90622C3E90822C3E90A22CA
:1032B000C3E90E22C3E91022C3E91422C3E917228D
:1032C0005A67C3E9016501800F4801800F490A7000
:1032D000012283F834200E4A1A6070BD10050020C8
:1032E000B0120020840400208C5701080404002040
:1032F000484F01200100000100000101544F01204E
:103300004E4F01204A4F0120504F01204C4F0120C9
:10331000185901080148FFF727BD00BF100500201C
:10332000034B902283F85A2383F85823704700BF39
:1033300000E100E0094A0A49D3680A48C3F30A03D6
:10334000013B9BB20B801169C1F30A010139018075
:103350001364536B43F001035363704700680140EB
:103360009E4000209C400020014BD3F8AC007047E9
:1033700000680140024B0122C3F8AC105A6270474A
:103380000068014070B5044606F0BFFD23685D6E1D
:103390000AF0F0F901462046A8472368054AD3F809
:1033A00088502046AC460023BDE87040A2F5163197
:1033B000604700BF00B004D006F08EBD90F84B30DF
:1033C00013B1024B01221A7006F092BDA0400020FA
:1033D00006F04CBD06F0ADBE034B4FF080629A6024
:1033E0004FF080729A60704700E100E0084B4FF0A8
:1033F0008062C3F88820BFF34F8FBFF36F8F4FF009
:103400008072C3F88820BFF34F8FBFF36F8F704770
:1034100000E100E010B5144C236823B3134B144AA9
:103420001B6C11888B4213D1124B198802F0B8FF24
:10343000226892F86A30013382F86A30FFF742FC62
:10344000206807F0ADFABDE810400020FFF782BA0F
:1034500002F0A6FF206803681B6A9847BDE8104089
:103460000020FFF7A1BA10BD544F012000680140B1
:103470009E4000209C400020704708B505291CD8BC
:10348000DFE801F003070B0F131700F089FF006856
:1034900008BD00F085FF4068FAE700F081FF806812
:1034A000F6E700F07DFFC068F2E700F079FF006901
:1034B000EEE700F075FF4069EAE70020E8E710B5A5
:1034C0000421044610F047FC204610BD0048704718
:1034D000885D01081420704713B5002451B10368BA
:1034E00001948DF8034001AA9C680DF10303A047E5
:1034F00002B010BD0846FBE7C0897047008A7047DC
:10350000C088704780887047807A00F07F007047DD
:10351000807AC00970470020704700009FED010AC3
:10352000704700BF00000000704710B50821044636
:1035300010F011FC204610BD7047704700F59873DD
:103540000868496803C37047704770474160704717
:1035500070470000064BC0F84C310023C0F85031D2
:1035600000F5A273C0F84801C0F84031704700BFB1
:10357000153600080123037270477047704710B476
:10358000C26841685410034601EB6200D20748BF8D
:103590000A599B685DF8044B48BFD3581847034647
:1035A000406830B19A681AB9D86800F001007047D5
:1035B0000120704710B50C21044610F0CCFB2046CA
:1035C00010BD10B51021044610F0C5FB204610BDFB
:1035D00010B54FF4AE71044610F0BDFB204610BD8F
:1035E00010B50AF0C7F80368BDE81040DB6B184758
:1035F00010B50446D0F8400158B10368DB6898471D
:1036000038B1D4F8400103689B6898470023C4F898
:10361000403110BD2DE9F14FD0E9556A0746B06839
:1036200003681B6A984742F63343984205D8444BD7
:10363000444AA321444810F07BFC706803681B6A6D
:1036400098470F2803D8414B3E4AA421F2E7F0687F
:1036500003681B6A98470B2803D83D4B394AA521BC
:10366000E8E70AF087F8DFF8F09004300AF0A7F8EE
:10367000D9F8000010B10368DB689847D9F800005A
:1036800010B103681B689847DFF8D080D8F80000B5
:1036900010B103685B699847D7F83C0110B1036823
:1036A0005B689847D8F8000010B103681B6898471A
:1036B000D7F83C0110B103689B689847F06803682D
:1036C00000215B6A98474FF0000B224BC0F804B012
:1036D000044680F808B00360B068036859465B6A26
:1036E0009847054600F046FF7068036859465B6AD4
:1036F00098472946064600F0A7FE331DC7F83C61EF
:10370000CAF808302B68C6F808A02846DB68C9F854
:103710000040C8F80050EE639847336830461B6895
:103720009847214628460BF0CBFC236820461B69AE
:10373000984723685B69204601B0BDE8F04F184701
:10374000285F0108B65F010888600108CF600108A2
:10375000726101088C620108944F0120904F012092
:10376000F8B5044617460E460AF0C6F8104B002579
:10377000C4E955760F4E1C60C4E953550E4B3068B2
:1037800023600E4BC4E95135036829469B68C4E9A0
:103790004F559847284600F0B7FD336893F85820F6
:1037A0000AB1D86C00B998680FF0A8FD2046F8BDA2
:1037B000A04F0120544F0120386201082062010807
:1037C000064BC0F84C310023C0F8503100F5A2730D
:1037D000C0F84801C0F84031704700BF15360008F6
:1037E000406A7047806A704770478B88C0690A6872
:1037F000DB0A50F823001044704710B50446BAB1F4
:10380000107B68B1537BD27A1B0203F4E0631A4346
:10381000236A03EB82031A888A4202D193F90200D9
:1038200010BD05D8013880B204330028F3D1F7E782
:103830000020F5E710B52C21044610F08CFA204644
:1038400010BD000030B58BB00446BDF8605008953F
:10385000BDF85C5007959DF8505006959DF84C506A
:1038600005959DF8485004959DF8445003959DF8A2
:10387000405002959DF83C500195BDF83850009598
:103880000BF078F8064B2360159BE361169B2362CF
:10389000199B63621A9BA36220460BB030BD00BF28
:1038A000B06201087047704770477047704730B585
:1038B0000368018185B06D460146D3F88430044623
:1038C0002846984795E807003C3484E8070005B08F
:1038D00030BD30B50368418185B06D460146D3F8EF
:1038E000843004462846984795E807003C3484E82D
:1038F000070005B030BD0022028042808280C28075
:10390000704780F83610704770B5036804461B6B2B
:10391000154698472368294620465B6EBDE87040EF
:10392000184700207047806C704770477047704799
:1039300010B54C21044610F00EFA204610BD10B50B
:103940004FF46171044610F006FA204610BD08B528
:10395000FDF71AFB08BD0000036870B55E6B124BE3
:103960001B6804468DB22BB9104B114A6C211148CB
:1039700010F0DEFA1049828D0988914203D80F4B6E
:103980000B4A6D21F3E713F812200D4B1B6853F817
:10399000220003681B6B9847291A3346204609B258
:1039A000BDE87040184700BFA44F01201063010814
:1039B000526301088D630108A84F0120D4630108F8
:1039C000AC4F012000224FF0FF31C0E9002182609E
:1039D000704700000022C0E90122C0E90322C0E9CB
:1039E0000522C0E907224FF480728284014A0260F6
:1039F000704700BF6864010838B5262204460D46AA
:103A0000002110F0A6FF2046FFF7E4FF064B2360DD
:103A10002B88E384FF23204684F82830294607F0CA
:103A20005EFD204638BD00BF506A010810B5262251
:103A30000446002110F08DFF2046FFF7CBFF0A4B14
:103A400023600A4BA3624FF6FF73A3854FF47F02F6
:103A50000023C4E90C3223874FF0FF32C4E910235E
:103A6000E363204610BD00BF58690108205F0108CC
:103A70002DE9F04F044693B0274600250BF074F96A
:103A8000D44BE56347F8403B26222946384610F0E0
:103A900060FF3846FFF79EFFCF4B236404F16C0BA9
:103AA000FF234FF6FF7684F8663004F1980A10A9D8
:103AB0005846A56604F1C409ADF84060FFF79CFFC5
:103AC00010A9504604F1F008ADF84060FFF794FFEC
:103AD00010A94846ADF84060FFF78EFF10A9404698
:103AE000ADF84060FFF788FF04F58E7310A9184603
:103AF0000493ADF84060FFF77FFF04F5A47310A9AD
:103B000018460593ADF84060FFF776FF04F5BA73E9
:103B100010A918460693ADF84060FFF76DFF04F555
:103B2000D07310A918460793ADF84060FFF764FF03
:103B300004F5E67310A918460893ADF84060FFF746
:103B40005BFF04F5FC7310A918460993ADF84060BB
:103B5000FFF752FF04F5097310A918460A93ADF850
:103B60004060FFF749FF04F5147310A918460B9342
:103B7000ADF84060FFF740FF04F51F731846974EFD
:103B80000193FFF753FF04F53273C4F87C621846C3
:103B9000C4F8C4520293FFF749FF04F54573184671
:103BA000C4F8C862C4F810530393FFF73FFF2A46D6
:103BB00038462946FDF7FEF938464FF4A071FDF767
:103BC000BCF93846F021261DFDF7B9F94FF07F43C7
:103BD000A3663946304605F0ADFE2A4658462946CA
:103BE000FDF7E8F9584610A9ADF8405007F077FC0A
:103BF0005946304605F09EFEDC2250467849FDF7D6
:103C0000D9F94FF0020B504610A9ADF840B007F0BB
:103C100066FC5146304684F8BD5005F08BFEDC2230
:103C200048466FF0F901FDF7C5F9484610A9ADF80F
:103C300040B007F054FC4946304684F8E95005F09E
:103C400079FEDC2240466FF0EF01FDF7B3F9404604
:103C500010A9ADF840B007F042FC4146304605F0EF
:103C600069FE93220498DFF88C912821FDF7A2F9D0
:103C700007230498ADF8403010A907F030FC0499F0
:103C800084F84151304605F055FE932205982821CD
:103C9000FDF790F905230598ADF8403010A907F01D
:103CA0001EFC059984F86D51304605F043FE9322C1
:103CB00006982821FDF77EF906230698ADF84030D6
:103CC00010A907F00CFC069984F89951304605F0CC
:103CD00031FEA82207982821FDF76CF909230798DF
:103CE000ADF8403010A907F0FAFB079984F8C551E8
:103CF000304605F01FFEA82208982821FDF75AF942
:103D00004FF00A030898ADF8403010A907F0E7FB20
:103D1000089984F8F151304605F00CFE9322099879
:103D20002821FDF747F94FF0030A0998ADF840A0A4
:103D300010A907F0D4FB099984F81D52304605F00C
:103D4000F9FD67220A983C21FDF734F911230A98FE
:103D5000ADF8403010A907F0C2FB0A9984F8495227
:103D6000304605F0E7FD67220B98A121FDF722F907
:103D700012230B98ADF8403010A907F0B0FB0B9957
:103D800084F87552304605F0D5FD1B22019840F2AB
:103D90000911FDF70FF9134BC4F8AC32D4F87C329B
:103DA0000199D3F88430A4F8B0520CAF3846984744
:103DB00097E8070004F52E7383E80700D9F8003070
:103DC00004F55778C3B9084B084A6021084810F039
:103DD000AFF800BF60650108E8690108D064010818
:103DE000FCFEFFFFE6E6F5FF106301081264010820
:103DF0008D630108A44F0120454B1B88032B03D87A
:103E0000444B454A6121E1E7444B5146186800F0B4
:103E1000B7FA434A03460A2140460DF083F8019859
:103E2000C4F8C48207F074FADFF8FC800198CDF87A
:103E30004080042310A9ADF8443007F089FA0199B5
:103E4000304605F077FD02981B22AC21FDF7B2F851
:103E5000D4F8C832334AD3F884300299C4F8F8222F
:103E60003846A4F8FC52984797E8070004F54173D8
:103E700083E80700D9F8003004F55C7A002BA2D063
:103E800023490B88012BBBD9244B0121186800F072
:103E900077FA234A03460A2150460DF043F8029868
:103EA000C4F810A307F034FA0298CDF8408010A9A6
:103EB000ADF844B007F04CFA029984F8ED52304660
:103EC00005F038FD039860225121FDF773F8154A7B
:103ED0000399C4F844233846A4F8485306F090FFE9
:103EE00097E8070004F5547383E807000398CDF8BA
:103EF000408010A9ADF8445007F02AFA30460399E3
:103F000084F8395305F016FD204613B0BDE8F08F54
:103F1000A84F0120D463010812640108B04F0120AA
:103F20005D640108E6E6F5FF205F010870470000C8
:103F300030B5174D2C68BFF35B8F14F001048FB0C0
:103F400022D128460FF009FFF0B13F230993114B0E
:103F50000893114B114912480A94CDE906430122F6
:103F60000423CDE903320F2300935F221123CDE90F
:103F70000B44CDE901440594FFF764FC09480FF0B8
:103F8000F5FF28460FF0F5FE05480FB030BD00BF25
:103F9000A4400020F4E10108ACE30108B8D1010815
:103FA000A84000202D3F00087047000030B5164D96
:103FB0002C68BFF35B8F14F001048FB021D1284629
:103FC0000FF0CBFEE8B13F230993104B0893104B41
:103FD000104911480A94CDE9064301220423CDE992
:103FE00003321E2300930922CDE90B44CDE901449D
:103FF0000594FFF727FC09480FF0B8FF28460FF09B
:10400000B8FE05480FB030BDD4400020F8E10108EB
:10401000B0E30108ECD60108D8400020A93F000811
:104020007047000030B5164D2C68BFF35B8F14F05D
:1040300001048FB020D128460FF08FFEE0B13F235E
:104040000993104B0893104B104911480A94012210
:10405000CDE906430423CDE903320A230093CDE9D9
:104060000B44CDE901440594FFF7ECFB09480FF040
:104070007DFF28460FF07DFE05480FB030BD00BF24
:1040800004410020FCE10108B4E301086CD70108F9
:1040900008410020214000087047000030B5174D4E
:1040A0002C68BFF35B8F14F001048FB022D1284637
:1040B0000FF053FEF0B13F230993114B0893114BBE
:1040C00007930123CDE9053304930423CDE902438B
:1040D00014230D4900935F221823CDE90B440B48AC
:1040E0000A940194FFF7AEFB09480FF03FFF284602
:1040F0000FF03FFE05480FB030BD00BF3441002037
:1041000000E20108B8E301087CD70108384100202B
:10411000994000087047000030B5164D2C68BFF379
:104120005B8F14F001048FB020D128460FF015FEEC
:10413000E0B13F230993104B0893104B10491148ED
:104140000A940122CDE906430423CDE90332282352
:104150000093CDE90B44CDE901440594FFF772FBD0
:1041600009480FF003FF28460FF003FE05480FB083
:1041700030BD00BF64410020A4E30108BCE3010896
:10418000B0DC0108684100201541000870470000BC
:1041900030B5174D2C68BFF35B8F14F001048FB05E
:1041A00023D128460FF0D9FDF8B13F230993114BD5
:1041B0000893114B07930323CDE905330122042310
:1041C000CDE9033216230D4900935F221B23CDE96D
:1041D0000B44CDE901440A480A94FFF733FB094830
:1041E0000FF0C4FE28460FF0C4FD05480FB030BDE7
:1041F00094410020A8E30108C0E30108C0DC0108E5
:10420000984100208D410008002070470020704731
:104210000EB403B503AB002153F8042B01930AF04D
:10422000F5F902B05DF804EB03B070470CB407B5C4
:1042300004AB53F8042B01930AF0E8F903B05DF8DE
:1042400004EB02B07047000010B504460AF0C4FF4A
:10425000E38E04EB43035884636C5BB3238F2BB969
:10426000174B184AC52118480FF062FE10B32046BC
:104270000CF0AFF8238F012B03D8144B144ACB2139
:10428000F1E7E28E531C9BB2092B194688BFA3F1BC
:104290000A0104EB410140F63F10498C814209D1EB
:1042A0000A2B04EB420228BF002304EB4303508C8B
:1042B000588451842046BDE810400BF08DBF00BFEC
:1042C0008C65010895650108406601088A66010849
:1042D0009866010810B504460BF045FF2046BDE87E
:1042E00010400AF074BF10B586B002AC84E8060036
:1042F0001A460AAB05930193099B00932146089B3C
:1043000008F0BEFD06B010BD38B518BB124B1348FF
:104310001C681349B4B122682244026062682244D6
:104320000A60A26814440F4B00221A8000F038F88B
:10433000054600F033F80C4B1C600C4B1D600C4B19
:10434000188007E00B4B03600B4B0B600B4B1C689A
:10435000002CE8D138BD00BFD0410020C84100206A
:10436000C4410020CC410020A44F0120AC4F0120CB
:10437000A84F0120D8E30108C4E3010804E40108C0
:10438000044B1B6853F82100034B1B6803EB4000F0
:10439000704700BFC4410020C8410020052070477D
:1043A00000487047D441002010B5FFF777FE094C54
:1043B0002060FFF7B1FE6060FFF734FEA060FFF7FA
:1043C000E7FEE060FFF7B4FD2061FFF7EFFD6061FD
:1043D00010BD00BFD4410020704710B54FF4AE713E
:1043E00004460FF0B8FC204610BD10B50446D0F8C6
:1043F000580100F017F82046BDE8104009F03CBA1B
:1044000010B50446FFF7ACF9014B2360204610BD00
:104410007467010802490022C0E9002182607047E8
:104420005F00A000036801330360704770470438E1
:104430007047704710B5102104460FF08CFC2046E1
:1044400010BDA0F10400F5E700228260024A02607C
:1044500018324260C1607047C8670108704738B5BC
:10446000D0E9E11303EB830301259942044680F868
:10447000915309DD052391FBF3F10368C0F888131C
:104480001B6B984784F8ED52012384F8393338BD0B
:1044900038B5044600F557750B462846054A0A21EB
:1044A0000CF040FDC4F8C45204F51F70BDE838405C
:1044B0000AF0B3B9E867010838B5044600F55C7541
:1044C0000B462846054A0A210CF02CFDC4F810536F
:1044D00004F53270BDE838400AF09FB9E86701087A
:1044E00038B500F500551C4B0360D5F8F83B044681
:1044F00000F52F501B6838309847D5F8C83B04F5B5
:104500002F501B680830984704F5805504F5C150BA
:1045100018300FF089FCD5F8F43704F5BF501B684C
:1045200014309847D5F8C43704F5BE501B680430E2
:10453000984704F22C400FF077FC4FF47D756359D7
:1045400060191B68303D9847B5F5597FF7D1204673
:10455000FFF7EBF9204638BDF867010810B50446AF
:10456000FFF7BEFF204642F634410FF0F4FB204631
:1045700010BD000038B50446FFF77AFA0D4B2360F2
:1045800000250D4BC4F88C33C4E9E155A4F89053D1
:1045900084F8925304F56570FCF78EFE04F52F50F5
:1045A0000830FCF715FD04F50053204683F8305C15
:1045B00038BD00BFF86701080000404000F580509A
:1045C00010B5D0F82428D0F82C38B1F904401344A1
:1045D0009C4215DAB1F908302344934210DDD0F83B
:1045E0002828D0F83038B1F9064013449C4207DA45
:1045F000B1F90A0020449042D4BF0020012010BD30
:104600000020FCE70000000038B590F89133044624
:10461000BBB1A34B1B88952B40F23B81002580F852
:10462000915300F52F500830FCF7C2FD04F565707A
:10463000FCF7D0FE9B4BC4F88453C4F88C3384F849
:104640003953D4F8843332220133C4F8843393FBD2
:10465000F2F102FB1133ABB9D4EDE37AB1EE0C7A8F
:10466000F4EEC77AF1EE10FA0CD517EE900AFBF7CC
:104670007BFF89A3D3E90023FBF718FEFCF766FA5A
:10468000C4F88C0304F52F500830FCF7E3FCD4F891
:10469000841394EDE30A04F56570FCF7A6FED4F8E4
:1046A0008433062293FBF2F102FB1133022B3AD042
:1046B000042B3FD033B9012284F8152184F8E93066
:1046C00084F8BD3094F89033002B4ED004F5FC7183
:1046D0002046FFF773FF18B1236820465B6B9847AD
:1046E00094F892330133DBB20F2B84F8923328D83D
:1046F00003EB43139B006FF00E0293FBF2F3933333
:10470000A4F8FE31D4F88433674A934206DC226869
:104710000521D26A93FBF1F120469047201DBDE8A8
:1047200038400AF07AB80023012284F8153184F861
:10473000E920C5E7002384F8153184F8E930012326
:10474000BEE7232B01D80F23DAE7322B07D88422C8
:10475000233B53430F22B3FBF2F31344D0E7002370
:1047600084F8903384F89233CCE7504A128804F5E9
:104770000051A2F15B053A2D91F8300C43D95A2A29
:104780004FF0010204D984F8902384F89233022276
:10479000824212D0012A81F8302C4FF0000334D02D
:1047A000022A39D0012284F86D2184F8993184F8E5
:1047B000C53184F8F13184F81D3291F8303C002B7A
:1047C0003AD104F5A4712046FFF7F8FE18B123682A
:1047D00020465B6B9847D4F88433182293FBF2F1A0
:1047E00002FB1133142B8DD8314A012101FA03F356
:1047F0001A40DAB92F481840002883D084F86D2178
:1048000084F899117EE71A46C2E784F86D3184F87E
:10481000993184F8C521CCE784F86D3184F8993159
:1048200084F8C53184F8F1310123C4E7002384F80A
:104830006D1184F8993165E7012B7FF463AF04F5BE
:10484000D0712046FFF7BAFE18B1236820465B6B93
:104850009847D4F88433182293FBF2F102FB11330A
:10486000142B3FF64FAF124A012101FA03F31A400D
:104870004AB91048184000283FF444AF84F8C521D5
:1048800084F8F1113EE7002384F8C51184F8F13172
:1048900038E738BDAFF300809A9999999999B93F53
:1048A0002A010020000040401AA107002801002032
:1048B0000111100010000100F8B500F52F56044654
:1048C00008363046251DFCF773FC3146284605F0B6
:1048D00031F804F52F513831284604F5657605F096
:1048E00029F83046FCF776FD04F22447BE420DD18C
:1048F00004F5BE512846043105F01CF804F5BF51FB
:1049000028461431BDE8F84005F014B83146284671
:1049100005F010F83036E9E7F02070474FF4A0704A
:1049200070472920FDF7B4BB2820FDF7B1BB08B5BF
:10493000FDF782FBCA20FDF7ABFBC320FDF78CFB24
:104940000820FDF789FB5020FDF786FBCF20FDF7FF
:104950009FFB0020FDF780FBC120FDF77DFB302091
:10496000FDF77AFBED20FDF793FB6420FDF774FB68
:104970000320FDF771FB1220FDF76EFB8120FDF790
:104980006BFBE820FDF784FB8520FDF765FB00202D
:10499000FDF762FB7820FDF75FFBCB20FDF778FB8E
:1049A0003920FDF759FB2C20FDF756FB0020FDF7C1
:1049B00053FB3420FDF750FB0220FDF74DFBF720A1
:1049C000FDF766FB2020FDF747FBEA20FDF760FBC3
:1049D0000020FDF741FB0020FDF73EFBB120FDF775
:1049E00057FB0020FDF738FB1B20FDF735FBB620F9
:1049F000FDF74EFB0A20FDF72FFBA220FDF72CFB55
:104A0000C020FDF745FB1020FDF726FBC120FDF778
:104A10003FFB1020FDF720FBC520FDF739FB4520AB
:104A2000FDF71AFB1520FDF717FBC720FDF730FB3C
:104A30009020FDF711FB3620FDF72AFBC820FDF77B
:104A40000BFBF220FDF724FB0020FDF705FBB02057
:104A5000FDF71EFBC220FDF7FFFAB620FDF718FB9D
:104A60000A20FDF7F9FAA720FDF7F6FA2720FDF74F
:104A7000F3FA0420FDF7F0FA2A20FDF709FB0020E5
:104A8000FDF7EAFA0020FDF7E7FA0020FDF7E4FA67
:104A9000EF20FDF7E1FA2B20FDF7FAFA0020FDF7F1
:104AA000DBFA0020FDF7D8FA0120FDF7D5FA3F2008
:104AB000FDF7D2FAF620FDF7EBFA0120FDF7CCFA6C
:104AC0000020FDF7C9FA0620FDF7C6FA2C20FDF7F5
:104AD000DFFAC820FDF72AFB2620FDF7D9FA0120CE
:104AE000FDF7BAFAE020FDF7D3FA0F20FDF7B4FA8C
:104AF0002920FDF7B1FA2420FDF7AEFA0C20FDF7CE
:104B0000ABFA0E20FDF7A8FA0920FDF7A5FA4E2012
:104B1000FDF7A2FA7820FDF79FFA3C20FDF79CFAFA
:104B20000920FDF799FA1320FDF796FA0520FDF705
:104B300093FA1720FDF790FA1120FDF78DFA002067
:104B4000FDF78AFAE120FDF7A3FA0020FDF784FAC9
:104B50001620FDF781FA1B20FDF77EFA0420FDF7F1
:104B60007BFA1120FDF778FA0720FDF775FA31205E
:104B7000FDF772FA3320FDF76FFA4220FDF76CFA69
:104B80000520FDF769FA0C20FDF766FA0A20FDF70B
:104B900063FA2820FDF760FA2F20FDF75DFA0F2059
:104BA000FDF75AFA1120FDF773FAC820FDF7BEFA97
:104BB0002920FDF76DFABDE808402C20FDF768BA02
:104BC00008B5FDF739FA0321D320FDF77DFA80B24D
:104BD00008BD10B5C4B2022203212046FDF7E2F958
:104BE0000A20FDF727FA204600220321FDF7DAF913
:104BF000BDE810400220FDF71DBA38B50446E4B206
:104C0000FDF7CEF900212046FDF7E4F90121054624
:104C10002046FDF7DFF940EA052080B238BD10B527
:104C2000C4B240212046FDF7D5F9030607D54C2133
:104C30002046FDF7CFF9003818BF012010BD012232
:104C40004B212046FDF7AEF9204600224B21FDF70F
:104C5000A9F90020F2E773B50423C4B20E46154645
:104C6000D7210DEB03022046FDF7CEF9019B1BBABD
:104C70001A0DC3F30B23328020462B8001224B21D7
:104C8000FDF790F900224B212046FDF78BF902B089
:104C900070BD000010B50A4A1378984204460DD042
:104CA000517888420AD00BB141B90123D454FDF7A1
:104CB00077F92046BDE81040FFF78BBF10BD00BF5D
:104CC000EC41002010B5C4B209212046FDF782F95D
:104CD00040F00102D2B220460921BDE81040FDF7A4
:104CE00061B910B5C4B209212046FDF773F9092155
:104CF00000F0FE022046BDE81040FDF753B938B57C
:104D0000C4B20D4620460A21FDF764F940EA0502C7
:104D1000D2B220460A21BDE83840FDF743B910B5AC
:104D20000446FDF73EF920461F21FFF7E8FF204625
:104D3000BDE81040FFF7C6BF38B5C4B20D462046E7
:104D40000A21FDF747F920EA0502D2B220460A21DE
:104D5000BDE83840FDF726B910B50446FFF7C1FF9E
:104D600020461F21BDE81040FFF7E6BF10B5C0B2D6
:104D70000C460B21FDF72EF9204010BD1F21FFF737
:104D8000F5BF0A46C0B20B21FDF70CB91F21FFF792
:104D9000F8BF38B5C4B20D4620461721FDF71AF901
:104DA00020EA0502D2B220461721BDE83840FDF7BF
:104DB000F9B870B5C4B2064604212046FDF70AF9D9
:104DC000042100F0FB0205462046FDF7EBF83046D3
:104DD000F021FFF7DEFF05F0F80220460421FDF781
:104DE000E1F8492220212046FDF7DCF80220FDF7FA
:104DF00021F9204601222121FDF7D4F820469A22EC
:104E00004121FDF7CFF8204601224A21FDF7CAF8DB
:104E1000204601224B21FDF7C5F8204600224B21F8
:104E2000FDF7C0F8204601225621FDF7BBF82046C9
:104E300001225821FDF7B6F8204601224021FDF756
:104E4000B1F82046FF220B21FDF7ACF8BDE8704019
:104E50000220FDF7EFB80000054BD3F8882042F49C
:104E60007002C3F888204FF000629A60704700BF5C
:104E700000ED00E008B50B4B1A6842F400721A60AE
:104E80001A6842F480621A601A6842F480721A60EA
:104E9000032000F045FA0020FDF7E2FBFDF754F98E
:104EA000002008BD003C0240034A044B11681B78F7
:104EB0000B441360704700BFF041002078000020D1
:104EC000014B1868704700BFF041002038B5044618
:104ED000FFF7F6FF631C1CBF054B1B78054618BF88
:104EE000E418FFF7EDFF431BA342FAD338BD00BF20
:104EF0007800002038B50446002800F09B80056C3F
:104F000025B9FDF759F9656484F83C50236CDB063C
:104F100000F18E80236C23F4885323F0020343F0C6
:104F200002032364444B5A6822F440325A605A68A0
:104F300061680A435A60236821695A6822F48072C2
:104F40005A605A6842EA01225A605A68A16822F0FF
:104F500040725A605A680A435A609A68E16822F4BB
:104F600000629A609A680A439A603449A26A8A4247
:104F700052D0996821F07061996099680A439A60EB
:104F80009A68E16A22F040529A609A680A439A60ED
:104F90009A6822F002029A609A68217E42EA4102EF
:104FA0009A6094F82020002A3ED05A68616A42F440
:104FB00000625A605A6822F460425A605A680139A5
:104FC00042EA41325A60DA6AE16922F47002DA6236
:104FD000DA6A013942EA0152DA629A6822F400720E
:104FE0009A609A6894F8301042EA41229A609A686E
:104FF000616922F480629A609A68002042EA812204
:105000009A606064236C23F0030343F0010323647C
:10501000002384F83C3038BD9A6822F070629A60B0
:105020009A6822F04052B2E75A6822F40062C9E757
:105030000120EDE70120EEE7002301400100000F11
:1050400082B00023019390F83C30012B69D00123FA
:1050500080F83C3003689A68D2070BD59A68D1076C
:105060001AD4036C43F010030364436C43F0010350
:1050700043644CE09A682C4942F001029A602B4A42
:105080001268B2FBF1F202EB42020192019A002A8D
:10509000E4D0019A013AF8E7026C22F4E06222F0CF
:1050A000010242F4807202645A68520541BF026CE8
:1050B00022F4405242F480520264026C12F4805294
:1050C0001CBF426C22F006024264002280F83C20A1
:1050D0006FF022021A60164A516811F01F0F15492D
:1050E0001CD18B4207D001F580718B420CD15268E4
:1050F00012F01F0F0BD19A6812F0405F07D19A6827
:1051000042F080429A6002E00B498B4202D00020BC
:1051100002B07047526812F0100FEBE78B42F6D1E5
:10512000E9E70220F4E700BF40420F0074000020CE
:1051300000230140002001400022014003689A68DA
:10514000520570B504460D460BD59B68DE0508D5A3
:10515000036C43F020030364002380F83C300120FB
:1051600070BDFFF7ADFE064623681A6891070CD59F
:105170006FF012021A60226C42F4007222649A6884
:1051800012F0405F17D00020EAE7681CEDD065B947
:1051900023681B6813F00203E6D1226C84F83C30CC
:1051A00042F0040222640320DAE7FFF789FE801B45
:1051B000A842EDD8D8E7227E002AE4D1DA6A12F4B8
:1051C000700F02D09B685A05DDD4236C23F48073E2
:1051D0002364236CDB04D6D4236C43F001032364E3
:1051E000D1E70368D86C7047F7B50023019390F8B6
:1051F0003C30012B054600F08680012380F83C30CE
:1052000008682B688E68092884B233D904EB4402FD
:10521000DF681E3A4FF0070C0CFA02FC27EA0C0775
:10522000DF60DF6806FA02F23A43DA60496806296D
:1052300001EB81022DD8596B053A1F26964021EAD1
:1052400006015963596B04FA02F20A435A632F4A62
:1052500093420AD1122837D12D4B5A6822F400020A
:105260005A605A6842F480025A60002085F83C0077
:1052700003B0F0BD1A6900EB400C072707FA0CF7E2
:1052800022EA07021A611A6906FA0CF616431E6131
:10529000CCE70C294FF01F010BD81E6B233A91402D
:1052A00026EA01011963196B04FA02F20A431A6330
:1052B000CDE7DE6A413A914026EA0101D962D96A16
:1052C00094400C43DC62C2E7124B984201D0112893
:1052D000CBD10F4B5A6822F480025A605A6842F4CC
:1052E00000025A600B4B9842BFD10B4B0B4A1B6814
:1052F000B3FBF2F30A2253430193019B002BB4D07A
:10530000019B013BF8E70220B2E700BF002001400B
:1053100000230140120000107400002040420F00E2
:105320000749CA6822F4E0620302120403F4E0634E
:10533000120C134343F0BF6343F40033CB60704758
:1053400000ED00E0164B30B5DC68C4F30224C4F174
:105350000703251D042B28BF0423062D4FF0FF351E
:105360008CBF033C002405FA03F321EA0303A540A4
:1053700022EA0502A340002843EA0203ACBF00F181
:105380006040084A4FEA0313B8BF00F00F00DBB2D9
:10539000AABF00F56140135480F8003330BD00BF50
:1053A00000ED00E014ED00E0002807DB4109044AAD
:1053B00000F01F000123834042F82130704700BFF6
:1053C00000E100E010B5044650B1437903F0FF025C
:1053D00013B90271FCF7D8FE01236371002010BDE0
:1053E0000120FCE710B5044630B390F8393003F0E3
:1053F000FF021BB980F83820FCF736FF226861688D
:10540000022384F83930136823F440330B431360CC
:10541000536BA16823F007030B435363136CE168DC
:1054200023F47F5323F03F030B4313640020012335
:10543000E06384F8393010BD0120FCE77047704705
:10544000036870B55E681D68F207044614D5E90567
:1054500012D51A6822F480721A60C26B42F00102FF
:10546000C26301229A60042380F83930002380F857
:105470003830436903B19847B20616D5AB0414D54A
:1054800023681A6822F400521A6020229A60E36BA3
:1054900043F00203E363042384F83930002384F8E3
:1054A000383063690BB120469847300716D5290577
:1054B00014D523681A6822F400621A6008229A60E0
:1054C000E36B43F00403E363042384F839300023DF
:1054D00084F8383063690BB12046984772070BD5C2
:1054E0006B0509D523681A6822F480621A600422C9
:1054F0009A602046FFF7A2FFB00714D5A90512D580
:1055000023681A6822F400721A6002229A60E36B20
:10551000E363012384F83930002384F838302369A9
:105520000BB120469847F20613D5EB0411D523683A
:105530001A6822F480521A6010229A60E36BE363C7
:10554000012384F83930002384F838302046FFF7EF
:1055500076FF70BDF0B590F83820012A03464FF071
:1055600002002BD0012283F8382083F8390003EBA6
:105570000112D2E90740556A174F44EA0040093C3E
:10558000012C9CBF05F07F4210434FEA01161A68B8
:1055900088BF40EA056091B9516A394001435162C0
:1055A000012C9969916103D8596A21F07F41916278
:1055B0000122002083F8392083F83800F0BDD1693A
:1055C00039400143D1619919012C896911619CBF4E
:1055D00025F07F451562EBE7F0FFFC002DE9F74F62
:1055E000DFF8BC916C4A00230D6801249C4004EA5A
:1055F0000506AC4340F0B7804D68032705F003046F
:105600004FEA430807FA08FC671E012F6FEA0C0CEB
:1056100034D8876807EA0C0ECF6807FA08F747EA1C
:105620000E078760476827EA060EC5F300179F40FC
:1056300047EA0E074760C76807EA0C0E8F6807FA4B
:1056400008F747EA0E07022CC76019D14FEAD30AC0
:1056500000EB8A0A03F0070BDAF820704FEA8B0B95
:105660004FF00F0E0EFA0BFE27EA0E0E0F6907FA27
:105670000BF747EA0E07CAF8207001E0032CDAD1D5
:10568000076804FA08F407EA0C073C4315F4403FA6
:10569000046068D000240194D9F8444044F4804464
:1056A000C9F84440D9F8444023F0030707F1804784
:1056B00004F4804407F59C37019403F0030C019C2B
:1056C000D7F808E04FEA8C0C0F2404FA0CF42EEA09
:1056D000040E324CA0424DD004F58064A0424BD061
:1056E00004F58064A04249D004F58064A04247D00C
:1056F00004F58064A04245D004F58064A04243D004
:1057000004F58064A04241D004F58064A0423FD0FB
:1057100004F58064A0423DD004F58064A04214BF2B
:105720000A24092404FA0CF444EA0E04BC609468C8
:10573000F74315F4801F0CBF3C4034439460D46899
:1057400015F4001F0CBF3C403443D460546815F47A
:10575000003F0CBF3C40344354601468ED0354BF19
:105760003C40344314600133102B7FF43DAF03B051
:10577000BDE8F08F0024D5E70124D3E70224D1E768
:105780000324CFE70424CDE70524CBE70624C9E7AB
:105790000724C7E70824C5E7003C01400000024099
:1057A000003802400369194214BF012000207047ED
:1057B0000AB1816170470904FBE7436901EA03020A
:1057C00021EA030141EA024181617047704700000C
:1057D000044A5169014208B502D05061FFF7F6FF53
:1057E00008BD00BF003C014001684B6913F48063B1
:1057F0004FF0000210D06FF480634B6120230263EE
:1058000080F83D3080F83E20036C80F83C2043F067
:105810000403036401207047184670472DE9F846D9
:1058200006460F4691461D464FEA114A3368BAF1C3
:10583000010F0CBF5C699C6927EA0404A4B2B4FAA6
:1058400084F46409A14501D0002017E06A1CEED061
:10585000FFF736FB089BC01AA84201D8002DE5D1FE
:1058600000232022336386F83D2086F83E30326CD8
:1058700086F83C3042F0200232640120BDE8F88610
:105880002DE9F04104460F4616469846256868699A
:1058900027EA000080B2C0B16B695A0517D52B68A2
:1058A00043F400732B606FF480636B61202200234C
:1058B000236384F83D2084F83E30236C43F00403D6
:1058C0002364002384F83C300120BDE8F081731C80
:1058D000DDD0FFF7F5FAA0EB0800B04201D8002EAA
:1058E000D4D100232022236384F83D2084F83E3065
:1058F000236C1343E4E770B504460D46164623684F
:105900005B691B0601D500201AE02046FFF76CFFFB
:10591000A8B96A1CF3D0FFF7D3FA801BA84201D8BC
:10592000002DECD100232022236384F83D2084F84D
:105930003E30226C84F83C3042F020022264012088
:1059400070BD00002DE9F0431546026885B0DDE921
:105950000C789946136843F4807313600E463B46F7
:10596000CDF8008000224FF001110446FFF756FFEA
:10597000236838B11B68DB0502D54FF4007323643C
:10598000032620E006F0FE061E611A4943463A4609
:105990002046FFF775FFA8B9236803905A69039260
:1059A0009B690393424639462046039BFFF7A3FFBA
:1059B000064660B1236C042B01BF2268136843F4D0
:1059C000007313600126304605B0BDE8F083B9F1DD
:1059D000010F236802D1EDB21D61F4E72A0A1A61B2
:1059E000394642462046FFF786FF0028E2D1236869
:1059F000F1E700BF020001002DE9FF479A46036866
:105A000015461A6842F480621A601A68DDE90C785B
:105A100042F480721A600E463B46CDF800800022A8
:105A20004FF001110446FFF7F9FE236838B11B68F7
:105A3000DB0544BF4FF400732364032021E05FFAC9
:105A400086F906F0FE061E612B4943463A4620467B
:105A5000FFF716FFA0B9236803905A6903929B6968
:105A60000393424639462046039BFFF744FF58B153
:105A7000236C042B01BF2268136843F40073136086
:105A8000012004B0BDE8F087BAF1010F23681AD1F4
:105A9000EDB242461D6139462046FFF72CFF024613
:105AA0000028E5D121680B6843F480730B60204621
:105AB000CDF800803B464FF00111FFF7AFFE2268A2
:105AC00060B11368B4E72A0A1A6139464246204693
:105AD000FFF711FF0028CBD12368D9E749F0010374
